{
  "contractName": "BTCRelay",
  "abi": [
    {
      "constant": true,
      "inputs": [
        {
          "name": "",
          "type": "uint256"
        }
      ],
      "name": "_mainChain",
      "outputs": [
        {
          "name": "",
          "type": "bytes32"
        }
      ],
      "payable": false,
      "stateMutability": "view",
      "type": "function"
    },
    {
      "constant": true,
      "inputs": [],
      "name": "_heaviestBlock",
      "outputs": [
        {
          "name": "",
          "type": "bytes32"
        }
      ],
      "payable": false,
      "stateMutability": "view",
      "type": "function"
    },
    {
      "constant": true,
      "inputs": [],
      "name": "UNROUNDED_MAX_TARGET",
      "outputs": [
        {
          "name": "",
          "type": "uint256"
        }
      ],
      "payable": false,
      "stateMutability": "view",
      "type": "function"
    },
    {
      "constant": true,
      "inputs": [],
      "name": "TARGET_TIMESPAN_MUL_4",
      "outputs": [
        {
          "name": "",
          "type": "uint256"
        }
      ],
      "payable": false,
      "stateMutability": "view",
      "type": "function"
    },
    {
      "constant": true,
      "inputs": [
        {
          "name": "",
          "type": "uint256"
        }
      ],
      "name": "_ongoingForks",
      "outputs": [
        {
          "name": "startHeight",
          "type": "uint256"
        },
        {
          "name": "length",
          "type": "uint256"
        },
        {
          "name": "chainWork",
          "type": "uint256"
        }
      ],
      "payable": false,
      "stateMutability": "view",
      "type": "function"
    },
    {
      "constant": true,
      "inputs": [],
      "name": "DIFFICULTY_ADJUSTMENT_INVETVAL",
      "outputs": [
        {
          "name": "",
          "type": "uint256"
        }
      ],
      "payable": false,
      "stateMutability": "view",
      "type": "function"
    },
    {
      "constant": true,
      "inputs": [],
      "name": "_forkCounter",
      "outputs": [
        {
          "name": "",
          "type": "uint256"
        }
      ],
      "payable": false,
      "stateMutability": "view",
      "type": "function"
    },
    {
      "constant": true,
      "inputs": [],
      "name": "_highScore",
      "outputs": [
        {
          "name": "",
          "type": "uint256"
        }
      ],
      "payable": false,
      "stateMutability": "view",
      "type": "function"
    },
    {
      "constant": true,
      "inputs": [
        {
          "name": "",
          "type": "bytes32"
        }
      ],
      "name": "_headers",
      "outputs": [
        {
          "name": "blockHeight",
          "type": "uint256"
        },
        {
          "name": "chainWork",
          "type": "uint256"
        },
        {
          "name": "header",
          "type": "bytes"
        },
        {
          "name": "lastDiffAdjustment",
          "type": "uint256"
        }
      ],
      "payable": false,
      "stateMutability": "view",
      "type": "function"
    },
    {
      "constant": true,
      "inputs": [],
      "name": "_lastDiffAdjustmentTime",
      "outputs": [
        {
          "name": "",
          "type": "uint256"
        }
      ],
      "payable": false,
      "stateMutability": "view",
      "type": "function"
    },
    {
      "constant": true,
      "inputs": [],
      "name": "TARGET_TIMESPAN_DIV_4",
      "outputs": [
        {
          "name": "",
          "type": "uint256"
        }
      ],
      "payable": false,
      "stateMutability": "view",
      "type": "function"
    },
    {
      "constant": true,
      "inputs": [],
      "name": "TARGET_TIMESPAN",
      "outputs": [
        {
          "name": "",
          "type": "uint256"
        }
      ],
      "payable": false,
      "stateMutability": "view",
      "type": "function"
    },
    {
      "anonymous": false,
      "inputs": [
        {
          "indexed": true,
          "name": "blockHash",
          "type": "bytes32"
        },
        {
          "indexed": true,
          "name": "blockHeight",
          "type": "uint256"
        }
      ],
      "name": "StoreHeader",
      "type": "event"
    },
    {
      "anonymous": false,
      "inputs": [
        {
          "indexed": true,
          "name": "blockHash",
          "type": "bytes32"
        },
        {
          "indexed": true,
          "name": "blockHeight",
          "type": "uint256"
        },
        {
          "indexed": true,
          "name": "forkId",
          "type": "uint256"
        }
      ],
      "name": "StoreFork",
      "type": "event"
    },
    {
      "anonymous": false,
      "inputs": [
        {
          "indexed": true,
          "name": "newChainTip",
          "type": "bytes32"
        },
        {
          "indexed": true,
          "name": "startHeight",
          "type": "uint256"
        },
        {
          "indexed": true,
          "name": "forkId",
          "type": "uint256"
        }
      ],
      "name": "ChainReorg",
      "type": "event"
    },
    {
      "anonymous": false,
      "inputs": [
        {
          "indexed": true,
          "name": "txid",
          "type": "bytes32"
        },
        {
          "indexed": true,
          "name": "blockHeight",
          "type": "uint256"
        }
      ],
      "name": "VerityTransaction",
      "type": "event"
    },
    {
      "constant": false,
      "inputs": [
        {
          "name": "blockHeaderBytes",
          "type": "bytes"
        },
        {
          "name": "blockHeight",
          "type": "uint32"
        },
        {
          "name": "chainWork",
          "type": "uint256"
        },
        {
          "name": "lastDiffAdjustmentTime",
          "type": "uint256"
        }
      ],
      "name": "setInitialParent",
      "outputs": [],
      "payable": false,
      "stateMutability": "nonpayable",
      "type": "function"
    },
    {
      "constant": false,
      "inputs": [
        {
          "name": "blockHeaderBytes",
          "type": "bytes"
        }
      ],
      "name": "submitMainChainHeader",
      "outputs": [
        {
          "name": "",
          "type": "bytes32"
        }
      ],
      "payable": false,
      "stateMutability": "nonpayable",
      "type": "function"
    },
    {
      "constant": false,
      "inputs": [
        {
          "name": "blockHeaderBytes",
          "type": "bytes"
        }
      ],
      "name": "submitNewForkChainHeader",
      "outputs": [
        {
          "name": "blockHeaderHash",
          "type": "bytes32"
        }
      ],
      "payable": false,
      "stateMutability": "nonpayable",
      "type": "function"
    },
    {
      "constant": false,
      "inputs": [
        {
          "name": "blockHeaderBytes",
          "type": "bytes"
        },
        {
          "name": "forkId",
          "type": "uint256"
        }
      ],
      "name": "submitForkChainHeader",
      "outputs": [
        {
          "name": "",
          "type": "bytes32"
        }
      ],
      "payable": false,
      "stateMutability": "nonpayable",
      "type": "function"
    },
    {
      "constant": false,
      "inputs": [
        {
          "name": "txid",
          "type": "bytes32"
        },
        {
          "name": "txBlockHeight",
          "type": "uint256"
        },
        {
          "name": "txIndex",
          "type": "uint256"
        },
        {
          "name": "merkleProof",
          "type": "bytes"
        },
        {
          "name": "confirmations",
          "type": "uint256"
        }
      ],
      "name": "verifxTX",
      "outputs": [
        {
          "name": "",
          "type": "bool"
        }
      ],
      "payable": false,
      "stateMutability": "nonpayable",
      "type": "function"
    },
    {
      "constant": true,
      "inputs": [
        {
          "name": "data",
          "type": "bytes"
        }
      ],
      "name": "dblSha",
      "outputs": [
        {
          "name": "",
          "type": "bytes"
        }
      ],
      "payable": false,
      "stateMutability": "pure",
      "type": "function"
    },
    {
      "constant": true,
      "inputs": [
        {
          "name": "left",
          "type": "bytes"
        },
        {
          "name": "right",
          "type": "bytes"
        }
      ],
      "name": "concatSHA256Hash",
      "outputs": [
        {
          "name": "",
          "type": "bytes32"
        }
      ],
      "payable": false,
      "stateMutability": "pure",
      "type": "function"
    },
    {
      "constant": true,
      "inputs": [
        {
          "name": "blockHeaderHash",
          "type": "bytes32"
        },
        {
          "name": "confirmations",
          "type": "uint256"
        }
      ],
      "name": "withinXConfirms",
      "outputs": [
        {
          "name": "",
          "type": "bool"
        }
      ],
      "payable": false,
      "stateMutability": "view",
      "type": "function"
    },
    {
      "constant": true,
      "inputs": [
        {
          "name": "blockHeaderBytes",
          "type": "bytes"
        }
      ],
      "name": "getTimeFromHeader",
      "outputs": [
        {
          "name": "",
          "type": "uint32"
        }
      ],
      "payable": false,
      "stateMutability": "pure",
      "type": "function"
    },
    {
      "constant": true,
      "inputs": [
        {
          "name": "blockHeaderBytes",
          "type": "bytes"
        }
      ],
      "name": "getMerkleRoot",
      "outputs": [
        {
          "name": "",
          "type": "bytes32"
        }
      ],
      "payable": false,
      "stateMutability": "pure",
      "type": "function"
    },
    {
      "constant": true,
      "inputs": [
        {
          "name": "blockHeaderBytes",
          "type": "bytes"
        }
      ],
      "name": "getPrevBlockHashFromHeader",
      "outputs": [
        {
          "name": "",
          "type": "bytes32"
        }
      ],
      "payable": false,
      "stateMutability": "pure",
      "type": "function"
    },
    {
      "constant": true,
      "inputs": [
        {
          "name": "blockHeaderBytes",
          "type": "bytes"
        }
      ],
      "name": "getMerkleRootFromHeader",
      "outputs": [
        {
          "name": "",
          "type": "bytes32"
        }
      ],
      "payable": false,
      "stateMutability": "pure",
      "type": "function"
    },
    {
      "constant": true,
      "inputs": [
        {
          "name": "blockHeaderBytes",
          "type": "bytes"
        }
      ],
      "name": "getNBitsFromHeader",
      "outputs": [
        {
          "name": "",
          "type": "uint256"
        }
      ],
      "payable": false,
      "stateMutability": "pure",
      "type": "function"
    },
    {
      "constant": true,
      "inputs": [
        {
          "name": "blockHeaderBytes",
          "type": "bytes"
        }
      ],
      "name": "getTargetFromHeader",
      "outputs": [
        {
          "name": "",
          "type": "uint256"
        }
      ],
      "payable": false,
      "stateMutability": "pure",
      "type": "function"
    },
    {
      "constant": true,
      "inputs": [
        {
          "name": "target",
          "type": "uint256"
        }
      ],
      "name": "getDifficulty",
      "outputs": [
        {
          "name": "",
          "type": "uint256"
        }
      ],
      "payable": false,
      "stateMutability": "pure",
      "type": "function"
    },
    {
      "constant": true,
      "inputs": [
        {
          "name": "blockHeaderHash",
          "type": "bytes32"
        }
      ],
      "name": "getBlockHeader",
      "outputs": [
        {
          "name": "version",
          "type": "uint32"
        },
        {
          "name": "time",
          "type": "uint32"
        },
        {
          "name": "nonce",
          "type": "uint32"
        },
        {
          "name": "prevBlockHash",
          "type": "bytes32"
        },
        {
          "name": "merkleRoot",
          "type": "bytes32"
        },
        {
          "name": "target",
          "type": "uint256"
        }
      ],
      "payable": false,
      "stateMutability": "view",
      "type": "function"
    },
    {
      "constant": true,
      "inputs": [
        {
          "name": "forkId",
          "type": "uint256"
        }
      ],
      "name": "getLatestForkHash",
      "outputs": [
        {
          "name": "",
          "type": "bytes32"
        }
      ],
      "payable": false,
      "stateMutability": "view",
      "type": "function"
    }
  ],
  "bytecode": "0x608060405260016006556060604051908101604052806023815260200162006f7260239139600790805190602001906200003b9291906200033b565b50606060405190810160405280602f81526020016200703f602f9139600890805190602001906200006e9291906200033b565b506040805190810160405280601981526020017f496e76616c696420626c6f636b206865616465722073697a650000000000000081525060099080519060200190620000bc9291906200033b565b506040805190810160405280601481526020017f426c6f636b20616c72656164792073746f726564000000000000000000000000815250600a90805190602001906200010a9291906200033b565b506040805190810160405280601d81526020017f50726576696f757320626c6f636b2068617368206e6f7420666f756e64000000815250600b9080519060200190620001589291906200033b565b506060604051908101604052806032815260200162006f4060329139600c90805190602001906200018b9291906200033b565b50606060405190810160405280603581526020016200700a60359139600d9080519060200190620001be9291906200033b565b50608060405190810160405280604181526020016200706e60419139600e9080519060200190620001f19291906200033b565b506060604051908101604052806040815260200162006fca60409139600f9080519060200190620002249291906200033b565b506060604051908101604052806035815260200162006f956035913960109080519060200190620002579291906200033b565b506040805190810160405280601e81526020017f496e76616c6964207472616e73616374696f6e206964656e746966696572000081525060119080519060200190620002a59291906200033b565b5060606040519081016040528060318152602001620070af6031913960129080519060200190620002d89291906200033b565b506040805190810160405280601e81526020017f496e76616c6964204d65726b6c652050726f6f6620737472756374757265000081525060139080519060200190620003269291906200033b565b503480156200033457600080fd5b50620003ea565b828054600181600116156101000203166002900490600052602060002090601f016020900481019282601f106200037e57805160ff1916838001178555620003af565b82800160010185558215620003af579182015b82811115620003ae57825182559160200191906001019062000391565b5b509050620003be9190620003c2565b5090565b620003e791905b80821115620003e3576000816000905550600101620003c9565b5090565b90565b616b4680620003fa6000396000f3fe608060405234801561001057600080fd5b50600436106101ec576000357c0100000000000000000000000000000000000000000000000000000000900480635dc4011d11610121578063a6feda9b116100bf578063d5fe55581161008e578063d5fe555814610f91578063d9c6740414610faf578063dd86037e1461107e578063f59b328c1461109c576101ec565b8063a6feda9b14610cc2578063b417d5e214610dbd578063b778c84a14610f23578063bcf5352814610f41576101ec565b8063862661ce116100fb578063862661ce14610ad7578063983ef72514610af55780639aeb630614610b375780639f0ae3c414610c06576101ec565b80635dc4011d146108a657806368f5b5be146109755780636b4f9b9d14610a4e576101ec565b8063336c91421161018e57806341e006401161016857806341e00640146106cc57806356ac9f67146106ea5780635afb4f4b146107b95780635b054e2d14610888576101ec565b8063336c914214610583578063352b33551461065e5780633f18da791461067c576101ec565b8063157800e5116101ca578063157800e5146104365780631c5c14e01461050557806324780f0f14610547578063285d84cc14610565576101ec565b80630491cb1e146101f15780630dcf082d146103255780631196bd6214610367575b600080fd5b6102aa6004803603602081101561020757600080fd5b810190808035906020019064010000000081111561022457600080fd5b82018360208201111561023657600080fd5b8035906020019184600183028401116401000000008311171561025857600080fd5b91908080601f016020809104026020016040519081016040528093929190818152602001838380828437600081840152601f19601f82011690508083019250505050505050919291929050505061117b565b6040518080602001828103825283818151815260200191508051906020019080838360005b838110156102ea5780820151818401526020810190506102cf565b50505050905090810190601f1680156103175780820380516001836020036101000a031916815260200191505b509250505060405180910390f35b6103516004803603602081101561033b57600080fd5b8101908080359060200190929190505050611300565b6040518082815260200191505060405180910390f35b6104206004803603602081101561037d57600080fd5b810190808035906020019064010000000081111561039a57600080fd5b8201836020820111156103ac57600080fd5b803590602001918460018302840111640100000000831117156103ce57600080fd5b91908080601f016020809104026020016040519081016040528093929190818152602001838380828437600081840152601f19601f820116905080830192505050505050509192919290505050611353565b6040518082815260200191505060405180910390f35b6104ef6004803603602081101561044c57600080fd5b810190808035906020019064010000000081111561046957600080fd5b82018360208201111561047b57600080fd5b8035906020019184600183028401116401000000008311171561049d57600080fd5b91908080601f016020809104026020016040519081016040528093929190818152602001838380828437600081840152601f19601f8201169050808301925050505050505091929192905050506115dd565b6040518082815260200191505060405180910390f35b6105316004803603602081101561051b57600080fd5b81019080803590602001909291905050506115f1565b6040518082815260200191505060405180910390f35b61054f611609565b6040518082815260200191505060405180910390f35b61056d61160f565b6040518082815260200191505060405180910390f35b61063c6004803603602081101561059957600080fd5b81019080803590602001906401000000008111156105b657600080fd5b8201836020820111156105c857600080fd5b803590602001918460018302840111640100000000831117156105ea57600080fd5b91908080601f016020809104026020016040519081016040528093929190818152602001838380828437600081840152601f19601f82011690508083019250505050505050919291929050505061162f565b604051808263ffffffff1663ffffffff16815260200191505060405180910390f35b610666611a1b565b6040518082815260200191505060405180910390f35b6106a86004803603602081101561069257600080fd5b8101908080359060200190929190505050611a25565b60405180848152602001838152602001828152602001935050505060405180910390f35b6106d4611a4f565b6040518082815260200191505060405180910390f35b6107a36004803603602081101561070057600080fd5b810190808035906020019064010000000081111561071d57600080fd5b82018360208201111561072f57600080fd5b8035906020019184600183028401116401000000008311171561075157600080fd5b91908080601f016020809104026020016040519081016040528093929190818152602001838380828437600081840152601f19601f820116905080830192505050505050509192919290505050611a55565b6040518082815260200191505060405180910390f35b610872600480360360208110156107cf57600080fd5b81019080803590602001906401000000008111156107ec57600080fd5b8201836020820111156107fe57600080fd5b8035906020019184600183028401116401000000008311171561082057600080fd5b91908080601f016020809104026020016040519081016040528093929190818152602001838380828437600081840152601f19601f820116905080830192505050505050509192919290505050611e41565b6040518082815260200191505060405180910390f35b610890611e6b565b6040518082815260200191505060405180910390f35b61095f600480360360208110156108bc57600080fd5b81019080803590602001906401000000008111156108d957600080fd5b8201836020820111156108eb57600080fd5b8035906020019184600183028401116401000000008311171561090d57600080fd5b91908080601f016020809104026020016040519081016040528093929190818152602001838380828437600081840152601f19601f820116905080830192505050505050509192919290505050611e71565b6040518082815260200191505060405180910390f35b610a386004803603604081101561098b57600080fd5b81019080803590602001906401000000008111156109a857600080fd5b8201836020820111156109ba57600080fd5b803590602001918460018302840111640100000000831117156109dc57600080fd5b91908080601f016020809104026020016040519081016040528093929190818152602001838380828437600081840152601f19601f8201169050808301925050505050505091929192908035906020019092919050505061225d565b6040518082815260200191505060405180910390f35b610a7a60048036036020811015610a6457600080fd5b810190808035906020019092919050505061233c565b604051808763ffffffff1663ffffffff1681526020018663ffffffff1663ffffffff1681526020018563ffffffff1663ffffffff168152602001848152602001838152602001828152602001965050505050505060405180910390f35b610adf613a17565b6040518082815260200191505060405180910390f35b610b2160048036036020811015610b0b57600080fd5b8101908080359060200190929190505050613a1d565b6040518082815260200191505060405180910390f35b610bf060048036036020811015610b4d57600080fd5b8101908080359060200190640100000000811115610b6a57600080fd5b820183602082011115610b7c57600080fd5b80359060200191846001830284011164010000000083111715610b9e57600080fd5b91908080601f016020809104026020016040519081016040528093929190818152602001838380828437600081840152601f19601f820116905080830192505050505050509192919290505050613a4e565b6040518082815260200191505060405180910390f35b610c3260048036036020811015610c1c57600080fd5b8101908080359060200190929190505050613a68565b6040518085815260200184815260200180602001838152602001828103825284818151815260200191508051906020019080838360005b83811015610c84578082015181840152602081019050610c69565b50505050905090810190601f168015610cb15780820380516001836020036101000a031916815260200191505b509550505050505060405180910390f35b610da3600480360360a0811015610cd857600080fd5b8101908080359060200190929190803590602001909291908035906020019092919080359060200190640100000000811115610d1357600080fd5b820183602082011115610d2557600080fd5b80359060200191846001830284011164010000000083111715610d4757600080fd5b91908080601f016020809104026020016040519081016040528093929190818152602001838380828437600081840152601f19601f82011690508083019250505050505050919291929080359060200190929190505050613b30565b604051808215151515815260200191505060405180910390f35b610f0d60048036036040811015610dd357600080fd5b8101908080359060200190640100000000811115610df057600080fd5b820183602082011115610e0257600080fd5b80359060200191846001830284011164010000000083111715610e2457600080fd5b91908080601f016020809104026020016040519081016040528093929190818152602001838380828437600081840152601f19601f82011690508083019250505050505050919291929080359060200190640100000000811115610e8757600080fd5b820183602082011115610e9957600080fd5b80359060200191846001830284011164010000000083111715610ebb57600080fd5b91908080601f016020809104026020016040519081016040528093929190818152602001838380828437600081840152601f19601f8201169050808301925050505050505091929192905050506144ab565b6040518082815260200191505060405180910390f35b610f2b61468b565b6040518082815260200191505060405180910390f35b610f7760048036036040811015610f5757600080fd5b810190808035906020019092919080359060200190929190505050614691565b604051808215151515815260200191505060405180910390f35b610f996146cd565b6040518082815260200191505060405180910390f35b61106860048036036020811015610fc557600080fd5b8101908080359060200190640100000000811115610fe257600080fd5b820183602082011115610ff457600080fd5b8035906020019184600183028401116401000000008311171561101657600080fd5b91908080601f016020809104026020016040519081016040528093929190818152602001838380828437600081840152601f19601f8201169050808301925050505050505091929192905050506146e0565b6040518082815260200191505060405180910390f35b611086614acc565b6040518082815260200191505060405180910390f35b611179600480360360808110156110b257600080fd5b81019080803590602001906401000000008111156110cf57600080fd5b8201836020820111156110e157600080fd5b8035906020019184600183028401116401000000008311171561110357600080fd5b91908080601f016020809104026020016040519081016040528093929190818152602001838380828437600081840152601f19601f820116905080830192505050505050509192919290803563ffffffff1690602001909291908035906020019092919080359060200190929190505050614ad3565b005b6060600280836040518082805190602001908083835b6020831015156111b65780518252602082019150602081019050602083039250611191565b6001836020036101000a038019825116818451168082178552505050505050905001915050602060405180830381855afa1580156111f8573d6000803e3d6000fd5b5050506040513d602081101561120d57600080fd5b8101908080519060200190929190505050604051602001808281526020019150506040516020818303038152906040526040518082805190602001908083835b602083101515611272578051825260208201915060208101905060208303925061124d565b6001836020036101000a038019825116818451168082178552505050505050905001915050602060405180830381855afa1580156112b4573d6000803e3d6000fd5b5050506040513d60208110156112c957600080fd5b8101908080519060200190929190505050604051602001808281526020019150506040516020818303038152906040529050919050565b600060056000838152602001908152602001600020600301600160056000858152602001908152602001600020600301805490500381548110151561134157fe5b90600052602060002001549050919050565b60008173__Utils_________________________________63e00413969091602460206040518463ffffffff167c01000000000000000000000000000000000000000000000000000000000281526004018080602001848152602001838152602001828103825285818151815260200191508051906020019080838360005b838110156113ed5780820151818401526020810190506113d2565b50505050905090810190601f16801561141a5780820380516001836020036101000a031916815260200191505b5094505050505060006040518083038186803b15801561143957600080fd5b505af415801561144d573d6000803e3d6000fd5b505050506040513d6000823e3d601f19601f82011682018060405250602081101561147757600080fd5b81019080805164010000000081111561148f57600080fd5b828101905060208101848111156114a557600080fd5b81518560018202830111640100000000821117156114c257600080fd5b505092919050505073__Utils_________________________________6347f5343190916040518263ffffffff167c01000000000000000000000000000000000000000000000000000000000281526004018080602001828103825283818151815260200191508051906020019080838360005b83811015611551578082015181840152602081019050611536565b50505050905090810190601f16801561157e5780820380516001836020036101000a031916815260200191505b509250505060206040518083038186803b15801561159b57600080fd5b505af41580156115af573d6000803e3d6000fd5b505050506040513d60208110156115c557600080fd5b81019080805190602001909291905050509050919050565b60006115ea826000614ed3565b9050919050565b60016020528060005260406000206000915090505481565b60025481565b7bffffffffffffffffffffffffffffffffffffffffffffffffffffffff81565b60008173__Utils_________________________________63e00413969091604460046040518463ffffffff167c01000000000000000000000000000000000000000000000000000000000281526004018080602001848152602001838152602001828103825285818151815260200191508051906020019080838360005b838110156116c95780820151818401526020810190506116ae565b50505050905090810190601f1680156116f65780820380516001836020036101000a031916815260200191505b5094505050505060006040518083038186803b15801561171557600080fd5b505af4158015611729573d6000803e3d6000fd5b505050506040513d6000823e3d601f19601f82011682018060405250602081101561175357600080fd5b81019080805164010000000081111561176b57600080fd5b8281019050602081018481111561178157600080fd5b815185600182028301116401000000008211171561179e57600080fd5b505092919050505073__Utils_________________________________637e64ee1890916040518263ffffffff167c01000000000000000000000000000000000000000000000000000000000281526004018080602001828103825283818151815260200191508051906020019080838360005b8381101561182d578082015181840152602081019050611812565b50505050905090810190601f16801561185a5780820380516001836020036101000a031916815260200191505b509250505060006040518083038186803b15801561187757600080fd5b505af415801561188b573d6000803e3d6000fd5b505050506040513d6000823e3d601f19601f8201168201806040525060208110156118b557600080fd5b8101908080516401000000008111156118cd57600080fd5b828101905060208101848111156118e357600080fd5b815185600182028301116401000000008211171561190057600080fd5b505092919050505073__Utils_________________________________6302d06d0590916040518263ffffffff167c01000000000000000000000000000000000000000000000000000000000281526004018080602001828103825283818151815260200191508051906020019080838360005b8381101561198f578082015181840152602081019050611974565b50505050905090810190601f1680156119bc5780820380516001836020036101000a031916815260200191505b509250505060206040518083038186803b1580156119d957600080fd5b505af41580156119ed573d6000803e3d6000fd5b505050506040513d6020811015611a0357600080fd5b81019080805190602001909291905050509050919050565b6004621275000281565b60056020528060005260406000206000915090508060000154908060010154908060020154905083565b6107e081565b60008173__Utils_________________________________63e00413969091604860046040518463ffffffff167c01000000000000000000000000000000000000000000000000000000000281526004018080602001848152602001838152602001828103825285818151815260200191508051906020019080838360005b83811015611aef578082015181840152602081019050611ad4565b50505050905090810190601f168015611b1c5780820380516001836020036101000a031916815260200191505b5094505050505060006040518083038186803b158015611b3b57600080fd5b505af4158015611b4f573d6000803e3d6000fd5b505050506040513d6000823e3d601f19601f820116820180604052506020811015611b7957600080fd5b810190808051640100000000811115611b9157600080fd5b82810190506020810184811115611ba757600080fd5b8151856001820283011164010000000082111715611bc457600080fd5b505092919050505073__Utils_________________________________637e64ee1890916040518263ffffffff167c01000000000000000000000000000000000000000000000000000000000281526004018080602001828103825283818151815260200191508051906020019080838360005b83811015611c53578082015181840152602081019050611c38565b50505050905090810190601f168015611c805780820380516001836020036101000a031916815260200191505b509250505060006040518083038186803b158015611c9d57600080fd5b505af4158015611cb1573d6000803e3d6000fd5b505050506040513d6000823e3d601f19601f820116820180604052506020811015611cdb57600080fd5b810190808051640100000000811115611cf357600080fd5b82810190506020810184811115611d0957600080fd5b8151856001820283011164010000000082111715611d2657600080fd5b505092919050505073__Utils_________________________________6302d06d0590916040518263ffffffff167c01000000000000000000000000000000000000000000000000000000000281526004018080602001828103825283818151815260200191508051906020019080838360005b83811015611db5578082015181840152602081019050611d9a565b50505050905090810190601f168015611de25780820380516001836020036101000a031916815260200191505b509250505060206040518083038186803b158015611dff57600080fd5b505af4158015611e13573d6000803e3d6000fd5b505050506040513d6020811015611e2957600080fd5b81019080805190602001909291905050509050919050565b6000611e4f82600654614ed3565b9050600660008154809291906001019190505550809050919050565b60065481565b60008173__Utils_________________________________63e00413969091600460206040518463ffffffff167c01000000000000000000000000000000000000000000000000000000000281526004018080602001848152602001838152602001828103825285818151815260200191508051906020019080838360005b83811015611f0b578082015181840152602081019050611ef0565b50505050905090810190601f168015611f385780820380516001836020036101000a031916815260200191505b5094505050505060006040518083038186803b158015611f5757600080fd5b505af4158015611f6b573d6000803e3d6000fd5b505050506040513d6000823e3d601f19601f820116820180604052506020811015611f9557600080fd5b810190808051640100000000811115611fad57600080fd5b82810190506020810184811115611fc357600080fd5b8151856001820283011164010000000082111715611fe057600080fd5b505092919050505073__Utils_________________________________637e64ee1890916040518263ffffffff167c01000000000000000000000000000000000000000000000000000000000281526004018080602001828103825283818151815260200191508051906020019080838360005b8381101561206f578082015181840152602081019050612054565b50505050905090810190601f16801561209c5780820380516001836020036101000a031916815260200191505b509250505060006040518083038186803b1580156120b957600080fd5b505af41580156120cd573d6000803e3d6000fd5b505050506040513d6000823e3d601f19601f8201168201806040525060208110156120f757600080fd5b81019080805164010000000081111561210f57600080fd5b8281019050602081018481111561212557600080fd5b815185600182028301116401000000008211171561214257600080fd5b505092919050505073__Utils_________________________________6347f5343190916040518263ffffffff167c01000000000000000000000000000000000000000000000000000000000281526004018080602001828103825283818151815260200191508051906020019080838360005b838110156121d15780820151818401526020810190506121b6565b50505050905090810190601f1680156121fe5780820380516001836020036101000a031916815260200191505b509250505060206040518083038186803b15801561221b57600080fd5b505af415801561222f573d6000803e3d6000fd5b505050506040513d602081101561224557600080fd5b81019080805190602001909291905050509050919050565b60008082116008901515612329576040517f08c379a0000000000000000000000000000000000000000000000000000000008152600401808060200182810382528381815460018160011615610100020316600290048152602001915080546001816001161561010002031660029004801561231a5780601f106122ef5761010080835404028352916020019161231a565b820191906000526020600020905b8154815290600101906020018083116122fd57829003601f168201915b50509250505060405180910390fd5b506123348383614ed3565b905092915050565b60008060008060008060606000808981526020019081526020016000206002018054600181600116156101000203166002900480601f0160208091040260200160405190810160405280929190818152602001828054600181600116156101000203166002900480156123f05780601f106123c5576101008083540402835291602001916123f0565b820191906000526020600020905b8154815290600101906020018083116123d357829003601f168201915b505050505090508073__Utils_________________________________63e00413969091600060046040518463ffffffff167c01000000000000000000000000000000000000000000000000000000000281526004018080602001848152602001838152602001828103825285818151815260200191508051906020019080838360005b8381101561248f578082015181840152602081019050612474565b50505050905090810190601f1680156124bc5780820380516001836020036101000a031916815260200191505b5094505050505060006040518083038186803b1580156124db57600080fd5b505af41580156124ef573d6000803e3d6000fd5b505050506040513d6000823e3d601f19601f82011682018060405250602081101561251957600080fd5b81019080805164010000000081111561253157600080fd5b8281019050602081018481111561254757600080fd5b815185600182028301116401000000008211171561256457600080fd5b505092919050505073__Utils_________________________________637e64ee1890916040518263ffffffff167c01000000000000000000000000000000000000000000000000000000000281526004018080602001828103825283818151815260200191508051906020019080838360005b838110156125f35780820151818401526020810190506125d8565b50505050905090810190601f1680156126205780820380516001836020036101000a031916815260200191505b509250505060006040518083038186803b15801561263d57600080fd5b505af4158015612651573d6000803e3d6000fd5b505050506040513d6000823e3d601f19601f82011682018060405250602081101561267b57600080fd5b81019080805164010000000081111561269357600080fd5b828101905060208101848111156126a957600080fd5b81518560018202830111640100000000821117156126c657600080fd5b505092919050505073__Utils_________________________________6302d06d0590916040518263ffffffff167c01000000000000000000000000000000000000000000000000000000000281526004018080602001828103825283818151815260200191508051906020019080838360005b8381101561275557808201518184015260208101905061273a565b50505050905090810190601f1680156127825780820380516001836020036101000a031916815260200191505b509250505060206040518083038186803b15801561279f57600080fd5b505af41580156127b3573d6000803e3d6000fd5b505050506040513d60208110156127c957600080fd5b810190808051906020019092919050505096508073__Utils_________________________________63e00413969091604460046040518463ffffffff167c01000000000000000000000000000000000000000000000000000000000281526004018080602001848152602001838152602001828103825285818151815260200191508051906020019080838360005b83811015612874578082015181840152602081019050612859565b50505050905090810190601f1680156128a15780820380516001836020036101000a031916815260200191505b5094505050505060006040518083038186803b1580156128c057600080fd5b505af41580156128d4573d6000803e3d6000fd5b505050506040513d6000823e3d601f19601f8201168201806040525060208110156128fe57600080fd5b81019080805164010000000081111561291657600080fd5b8281019050602081018481111561292c57600080fd5b815185600182028301116401000000008211171561294957600080fd5b505092919050505073__Utils_________________________________637e64ee1890916040518263ffffffff167c01000000000000000000000000000000000000000000000000000000000281526004018080602001828103825283818151815260200191508051906020019080838360005b838110156129d85780820151818401526020810190506129bd565b50505050905090810190601f168015612a055780820380516001836020036101000a031916815260200191505b509250505060006040518083038186803b158015612a2257600080fd5b505af4158015612a36573d6000803e3d6000fd5b505050506040513d6000823e3d601f19601f820116820180604052506020811015612a6057600080fd5b810190808051640100000000811115612a7857600080fd5b82810190506020810184811115612a8e57600080fd5b8151856001820283011164010000000082111715612aab57600080fd5b505092919050505073__Utils_________________________________6302d06d0590916040518263ffffffff167c01000000000000000000000000000000000000000000000000000000000281526004018080602001828103825283818151815260200191508051906020019080838360005b83811015612b3a578082015181840152602081019050612b1f565b50505050905090810190601f168015612b675780820380516001836020036101000a031916815260200191505b509250505060206040518083038186803b158015612b8457600080fd5b505af4158015612b98573d6000803e3d6000fd5b505050506040513d6020811015612bae57600080fd5b810190808051906020019092919050505095508073__Utils_________________________________63e00413969091604c60046040518463ffffffff167c01000000000000000000000000000000000000000000000000000000000281526004018080602001848152602001838152602001828103825285818151815260200191508051906020019080838360005b83811015612c59578082015181840152602081019050612c3e565b50505050905090810190601f168015612c865780820380516001836020036101000a031916815260200191505b5094505050505060006040518083038186803b158015612ca557600080fd5b505af4158015612cb9573d6000803e3d6000fd5b505050506040513d6000823e3d601f19601f820116820180604052506020811015612ce357600080fd5b810190808051640100000000811115612cfb57600080fd5b82810190506020810184811115612d1157600080fd5b8151856001820283011164010000000082111715612d2e57600080fd5b505092919050505073__Utils_________________________________637e64ee1890916040518263ffffffff167c01000000000000000000000000000000000000000000000000000000000281526004018080602001828103825283818151815260200191508051906020019080838360005b83811015612dbd578082015181840152602081019050612da2565b50505050905090810190601f168015612dea5780820380516001836020036101000a031916815260200191505b509250505060006040518083038186803b158015612e0757600080fd5b505af4158015612e1b573d6000803e3d6000fd5b505050506040513d6000823e3d601f19601f820116820180604052506020811015612e4557600080fd5b810190808051640100000000811115612e5d57600080fd5b82810190506020810184811115612e7357600080fd5b8151856001820283011164010000000082111715612e9057600080fd5b505092919050505073__Utils_________________________________6302d06d0590916040518263ffffffff167c01000000000000000000000000000000000000000000000000000000000281526004018080602001828103825283818151815260200191508051906020019080838360005b83811015612f1f578082015181840152602081019050612f04565b50505050905090810190601f168015612f4c5780820380516001836020036101000a031916815260200191505b509250505060206040518083038186803b158015612f6957600080fd5b505af4158015612f7d573d6000803e3d6000fd5b505050506040513d6020811015612f9357600080fd5b810190808051906020019092919050505094508073__Utils_________________________________63e00413969091600460206040518463ffffffff167c01000000000000000000000000000000000000000000000000000000000281526004018080602001848152602001838152602001828103825285818151815260200191508051906020019080838360005b8381101561303e578082015181840152602081019050613023565b50505050905090810190601f16801561306b5780820380516001836020036101000a031916815260200191505b5094505050505060006040518083038186803b15801561308a57600080fd5b505af415801561309e573d6000803e3d6000fd5b505050506040513d6000823e3d601f19601f8201168201806040525060208110156130c857600080fd5b8101908080516401000000008111156130e057600080fd5b828101905060208101848111156130f657600080fd5b815185600182028301116401000000008211171561311357600080fd5b505092919050505073__Utils_________________________________637e64ee1890916040518263ffffffff167c01000000000000000000000000000000000000000000000000000000000281526004018080602001828103825283818151815260200191508051906020019080838360005b838110156131a2578082015181840152602081019050613187565b50505050905090810190601f1680156131cf5780820380516001836020036101000a031916815260200191505b509250505060006040518083038186803b1580156131ec57600080fd5b505af4158015613200573d6000803e3d6000fd5b505050506040513d6000823e3d601f19601f82011682018060405250602081101561322a57600080fd5b81019080805164010000000081111561324257600080fd5b8281019050602081018481111561325857600080fd5b815185600182028301116401000000008211171561327557600080fd5b505092919050505073__Utils_________________________________6347f5343190916040518263ffffffff167c01000000000000000000000000000000000000000000000000000000000281526004018080602001828103825283818151815260200191508051906020019080838360005b838110156133045780820151818401526020810190506132e9565b50505050905090810190601f1680156133315780820380516001836020036101000a031916815260200191505b509250505060206040518083038186803b15801561334e57600080fd5b505af4158015613362573d6000803e3d6000fd5b505050506040513d602081101561337857600080fd5b810190808051906020019092919050505093508073__Utils_________________________________63e00413969091602460206040518463ffffffff167c01000000000000000000000000000000000000000000000000000000000281526004018080602001848152602001838152602001828103825285818151815260200191508051906020019080838360005b83811015613423578082015181840152602081019050613408565b50505050905090810190601f1680156134505780820380516001836020036101000a031916815260200191505b5094505050505060006040518083038186803b15801561346f57600080fd5b505af4158015613483573d6000803e3d6000fd5b505050506040513d6000823e3d601f19601f8201168201806040525060208110156134ad57600080fd5b8101908080516401000000008111156134c557600080fd5b828101905060208101848111156134db57600080fd5b81518560018202830111640100000000821117156134f857600080fd5b505092919050505073__Utils_________________________________6347f5343190916040518263ffffffff167c01000000000000000000000000000000000000000000000000000000000281526004018080602001828103825283818151815260200191508051906020019080838360005b8381101561358757808201518184015260208101905061356c565b50505050905090810190601f1680156135b45780820380516001836020036101000a031916815260200191505b509250505060206040518083038186803b1580156135d157600080fd5b505af41580156135e5573d6000803e3d6000fd5b505050506040513d60208110156135fb57600080fd5b810190808051906020019092919050505092506139f98173__Utils_________________________________63e00413969091604860046040518463ffffffff167c01000000000000000000000000000000000000000000000000000000000281526004018080602001848152602001838152602001828103825285818151815260200191508051906020019080838360005b838110156136a957808201518184015260208101905061368e565b50505050905090810190601f1680156136d65780820380516001836020036101000a031916815260200191505b5094505050505060006040518083038186803b1580156136f557600080fd5b505af4158015613709573d6000803e3d6000fd5b505050506040513d6000823e3d601f19601f82011682018060405250602081101561373357600080fd5b81019080805164010000000081111561374b57600080fd5b8281019050602081018481111561376157600080fd5b815185600182028301116401000000008211171561377e57600080fd5b505092919050505073__Utils_________________________________637e64ee1890916040518263ffffffff167c01000000000000000000000000000000000000000000000000000000000281526004018080602001828103825283818151815260200191508051906020019080838360005b8381101561380d5780820151818401526020810190506137f2565b50505050905090810190601f16801561383a5780820380516001836020036101000a031916815260200191505b509250505060006040518083038186803b15801561385757600080fd5b505af415801561386b573d6000803e3d6000fd5b505050506040513d6000823e3d601f19601f82011682018060405250602081101561389557600080fd5b8101908080516401000000008111156138ad57600080fd5b828101905060208101848111156138c357600080fd5b81518560018202830111640100000000821117156138e057600080fd5b505092919050505073__Utils_________________________________6302d06d0590916040518263ffffffff167c01000000000000000000000000000000000000000000000000000000000281526004018080602001828103825283818151815260200191508051906020019080838360005b8381101561396f578082015181840152602081019050613954565b50505050905090810190601f16801561399c5780820380516001836020036101000a031916815260200191505b509250505060206040518083038186803b1580156139b957600080fd5b505af41580156139cd573d6000803e3d6000fd5b505050506040513d60208110156139e357600080fd5b8101908080519060200190929190505050615f2e565b91508686868686869650965096509650965096505091939550919395565b60035481565b6000817bffff0000000000000000000000000000000000000000000000000000811515613a4657fe5b049050919050565b6000613a61613a5c83611a55565b615f2e565b9050919050565b6000602052806000526040600020600091509050806000015490806001015490806002018054600181600116156101000203166002900480601f016020809104026020016040519081016040528092919081815260200182805460018160011615610100020316600290048015613b205780601f10613af557610100808354040283529160200191613b20565b820191906000526020600020905b815481529060010190602001808311613b0357829003601f168201915b5050505050908060030154905084565b6000806001028614156011901515613c00576040517f08c379a00000000000000000000000000000000000000000000000000000000081526004018080602001828103825283818154600181600116156101000203166002900481526020019150805460018160011615610100020316600290048015613bf15780601f10613bc657610100808354040283529160200191613bf1565b820191906000526020600020905b815481529060010190602001808311613bd457829003601f168201915b50509250505060405180910390fd5b5081856000806002548152602001908152602001600020600001540310156012901515613ce5576040517f08c379a00000000000000000000000000000000000000000000000000000000081526004018080602001828103825283818154600181600116156101000203166002900481526020019150805460018160011615610100020316600290048015613cd65780601f10613cab57610100808354040283529160200191613cd6565b820191906000526020600020905b815481529060010190602001808311613cb957829003601f168201915b50509250505060405180910390fd5b506000600160008781526020019081526020016000205490506000613db66000808481526020019081526020016000206002018054600181600116156101000203166002900480601f016020809104026020016040519081016040528092919081815260200182805460018160011615610100020316600290048015613dac5780601f10613d8157610100808354040283529160200191613dac565b820191906000526020600020905b815481529060010190602001808311613d8f57829003601f168201915b50505050506146e0565b9050878573__Utils_________________________________63e00413969091600060206040518463ffffffff167c01000000000000000000000000000000000000000000000000000000000281526004018080602001848152602001838152602001828103825285818151815260200191508051906020019080838360005b83811015613e51578082015181840152602081019050613e36565b50505050905090810190601f168015613e7e5780820380516001836020036101000a031916815260200191505b5094505050505060006040518083038186803b158015613e9d57600080fd5b505af4158015613eb1573d6000803e3d6000fd5b505050506040513d6000823e3d601f19601f820116820180604052506020811015613edb57600080fd5b810190808051640100000000811115613ef357600080fd5b82810190506020810184811115613f0957600080fd5b8151856001820283011164010000000082111715613f2657600080fd5b505092919050505073__Utils_________________________________6347f5343190916040518263ffffffff167c01000000000000000000000000000000000000000000000000000000000281526004018080602001828103825283818151815260200191508051906020019080838360005b83811015613fb5578082015181840152602081019050613f9a565b50505050905090810190601f168015613fe25780820380516001836020036101000a031916815260200191505b509250505060206040518083038186803b158015613fff57600080fd5b505af4158015614013573d6000803e3d6000fd5b505050506040513d602081101561402957600080fd5b8101908080519060200190929190505050146013901515614102576040517f08c379a000000000000000000000000000000000000000000000000000000000815260040180806020018281038252838181546001816001161561010002031660029004815260200191508054600181600116156101000203166002900480156140f35780601f106140c8576101008083540402835291602001916140f3565b820191906000526020600020905b8154815290600101906020018083116140d657829003601f168201915b50509250505060405180910390fd5b50808573__Utils_________________________________63e004139690916020806040518463ffffffff167c010000000000000000000000000000000000000000000000000000000002815260040180806020018460ff168152602001838152602001828103825285818151815260200191508051906020019080838360005b8381101561419e578082015181840152602081019050614183565b50505050905090810190601f1680156141cb5780820380516001836020036101000a031916815260200191505b5094505050505060006040518083038186803b1580156141ea57600080fd5b505af41580156141fe573d6000803e3d6000fd5b505050506040513d6000823e3d601f19601f82011682018060405250602081101561422857600080fd5b81019080805164010000000081111561424057600080fd5b8281019050602081018481111561425657600080fd5b815185600182028301116401000000008211171561427357600080fd5b505092919050505073__Utils_________________________________6347f5343190916040518263ffffffff167c01000000000000000000000000000000000000000000000000000000000281526004018080602001828103825283818151815260200191508051906020019080838360005b838110156143025780820151818401526020810190506142e7565b50505050905090810190601f16801561432f5780820380516001836020036101000a031916815260200191505b509250505060206040518083038186803b15801561434c57600080fd5b505af4158015614360573d6000803e3d6000fd5b505050506040513d602081101561437657600080fd5b810190808051906020019092919050505014601390151561444f576040517f08c379a000000000000000000000000000000000000000000000000000000000815260040180806020018281038252838181546001816001161561010002031660029004815260200191508054600181600116156101000203166002900480156144405780601f1061441557610100808354040283529160200191614440565b820191906000526020600020905b81548152906001019060200180831161442357829003601f168201915b50509250505060405180910390fd5b508061445c898888615f65565b141561449b5786887f177452b46e7e4d1f6700a6e9e0c10cecb0552e86e904e5d98c5f41686ca0914260405160405180910390a36001925050506144a2565b6000925050505b95945050505050565b600061457783836040516020018083805190602001908083835b6020831015156144ea57805182526020820191506020810190506020830392506144c5565b6001836020036101000a03801982511681845116808217855250505050505090500182805190602001908083835b60208310151561453d5780518252602082019150602081019050602083039250614518565b6001836020036101000a0380198251168184511680821785525050505050509050019250505060405160208183030381529060405261117b565b73__Utils_________________________________6347f5343190916040518263ffffffff167c01000000000000000000000000000000000000000000000000000000000281526004018080602001828103825283818151815260200191508051906020019080838360005b838110156145fe5780820151818401526020810190506145e3565b50505050905090810190601f16801561462b5780820380516001836020036101000a031916815260200191505b509250505060206040518083038186803b15801561464857600080fd5b505af415801561465c573d6000803e3d6000fd5b505050506040513d602081101561467257600080fd5b8101908080519060200190929190505050905092915050565b60045481565b60008160008085815260200190815260200160002060000154600080600254815260200190815260200160002060000154031015905092915050565b6004621275008115156146dc57fe5b0481565b60008173__Utils_________________________________63e00413969091602460206040518463ffffffff167c01000000000000000000000000000000000000000000000000000000000281526004018080602001848152602001838152602001828103825285818151815260200191508051906020019080838360005b8381101561477a57808201518184015260208101905061475f565b50505050905090810190601f1680156147a75780820380516001836020036101000a031916815260200191505b5094505050505060006040518083038186803b1580156147c657600080fd5b505af41580156147da573d6000803e3d6000fd5b505050506040513d6000823e3d601f19601f82011682018060405250602081101561480457600080fd5b81019080805164010000000081111561481c57600080fd5b8281019050602081018481111561483257600080fd5b815185600182028301116401000000008211171561484f57600080fd5b505092919050505073__Utils_________________________________637e64ee1890916040518263ffffffff167c01000000000000000000000000000000000000000000000000000000000281526004018080602001828103825283818151815260200191508051906020019080838360005b838110156148de5780820151818401526020810190506148c3565b50505050905090810190601f16801561490b5780820380516001836020036101000a031916815260200191505b509250505060006040518083038186803b15801561492857600080fd5b505af415801561493c573d6000803e3d6000fd5b505050506040513d6000823e3d601f19601f82011682018060405250602081101561496657600080fd5b81019080805164010000000081111561497e57600080fd5b8281019050602081018481111561499457600080fd5b81518560018202830111640100000000821117156149b157600080fd5b505092919050505073__Utils_________________________________6347f5343190916040518263ffffffff167c01000000000000000000000000000000000000000000000000000000000281526004018080602001828103825283818151815260200191508051906020019080838360005b83811015614a40578082015181840152602081019050614a25565b50505050905090810190601f168015614a6d5780820380516001836020036101000a031916815260200191505b509250505060206040518083038186803b158015614a8a57600080fd5b505af4158015614a9e573d6000803e3d6000fd5b505050506040513d6020811015614ab457600080fd5b81019080805190602001909291905050509050919050565b6212750081565b6000600102600254146007901515614ba3576040517f08c379a00000000000000000000000000000000000000000000000000000000081526004018080602001828103825283818154600181600116156101000203166002900481526020019150805460018160011615610100020316600290048015614b945780601f10614b6957610100808354040283529160200191614b94565b820191906000526020600020905b815481529060010190602001808311614b7757829003601f168201915b50509250505060405180910390fd5b506000614baf8561117b565b73__Utils_________________________________637e64ee1890916040518263ffffffff167c01000000000000000000000000000000000000000000000000000000000281526004018080602001828103825283818151815260200191508051906020019080838360005b83811015614c36578082015181840152602081019050614c1b565b50505050905090810190601f168015614c635780820380516001836020036101000a031916815260200191505b509250505060006040518083038186803b158015614c8057600080fd5b505af4158015614c94573d6000803e3d6000fd5b505050506040513d6000823e3d601f19601f820116820180604052506020811015614cbe57600080fd5b810190808051640100000000811115614cd657600080fd5b82810190506020810184811115614cec57600080fd5b8151856001820283011164010000000082111715614d0957600080fd5b505092919050505073__Utils_________________________________6347f5343190916040518263ffffffff167c01000000000000000000000000000000000000000000000000000000000281526004018080602001828103825283818151815260200191508051906020019080838360005b83811015614d98578082015181840152602081019050614d7d565b50505050905090810190601f168015614dc55780820380516001836020036101000a031916815260200191505b509250505060206040518083038186803b158015614de257600080fd5b505af4158015614df6573d6000803e3d6000fd5b505050506040513d6020811015614e0c57600080fd5b81019080805190602001909291905050509050806002819055508260038190555081600481905550846000808381526020019081526020016000206002019080519060200190614e5d9291906169c6565b508363ffffffff166000808381526020019081526020016000206000018190555082600080838152602001908152602001600020600101819055508363ffffffff16817f6080b2cdc7fc4777ed1e1066af5de1df45ae9186adbdb7aec21fde27a3e17e4c60405160405180910390a35050505050565b600060508351146009901515614fa1576040517f08c379a00000000000000000000000000000000000000000000000000000000081526004018080602001828103825283818154600181600116156101000203166002900481526020019150805460018160011615610100020316600290048015614f925780601f10614f6757610100808354040283529160200191614f92565b820191906000526020600020905b815481529060010190602001808311614f7557829003601f168201915b50509250505060405180910390fd5b5060008373__Utils_________________________________63e00413969091600460206040518463ffffffff167c01000000000000000000000000000000000000000000000000000000000281526004018080602001848152602001838152602001828103825285818151815260200191508051906020019080838360005b8381101561503c578082015181840152602081019050615021565b50505050905090810190601f1680156150695780820380516001836020036101000a031916815260200191505b5094505050505060006040518083038186803b15801561508857600080fd5b505af415801561509c573d6000803e3d6000fd5b505050506040513d6000823e3d601f19601f8201168201806040525060208110156150c657600080fd5b8101908080516401000000008111156150de57600080fd5b828101905060208101848111156150f457600080fd5b815185600182028301116401000000008211171561511157600080fd5b505092919050505073__Utils_________________________________637e64ee1890916040518263ffffffff167c01000000000000000000000000000000000000000000000000000000000281526004018080602001828103825283818151815260200191508051906020019080838360005b838110156151a0578082015181840152602081019050615185565b50505050905090810190601f1680156151cd5780820380516001836020036101000a031916815260200191505b509250505060006040518083038186803b1580156151ea57600080fd5b505af41580156151fe573d6000803e3d6000fd5b505050506040513d6000823e3d601f19601f82011682018060405250602081101561522857600080fd5b81019080805164010000000081111561524057600080fd5b8281019050602081018481111561525657600080fd5b815185600182028301116401000000008211171561527357600080fd5b505092919050505073__Utils_________________________________6347f5343190916040518263ffffffff167c01000000000000000000000000000000000000000000000000000000000281526004018080602001828103825283818151815260200191508051906020019080838360005b838110156153025780820151818401526020810190506152e7565b50505050905090810190601f16801561532f5780820380516001836020036101000a031916815260200191505b509250505060206040518083038186803b15801561534c57600080fd5b505af4158015615360573d6000803e3d6000fd5b505050506040513d602081101561537657600080fd5b8101908080519060200190929190505050905060006153948561117b565b73__Utils_________________________________637e64ee1890916040518263ffffffff167c01000000000000000000000000000000000000000000000000000000000281526004018080602001828103825283818151815260200191508051906020019080838360005b8381101561541b578082015181840152602081019050615400565b50505050905090810190601f1680156154485780820380516001836020036101000a031916815260200191505b509250505060006040518083038186803b15801561546557600080fd5b505af4158015615479573d6000803e3d6000fd5b505050506040513d6000823e3d601f19601f8201168201806040525060208110156154a357600080fd5b8101908080516401000000008111156154bb57600080fd5b828101905060208101848111156154d157600080fd5b81518560018202830111640100000000821117156154ee57600080fd5b505092919050505073__Utils_________________________________6347f5343190916040518263ffffffff167c01000000000000000000000000000000000000000000000000000000000281526004018080602001828103825283818151815260200191508051906020019080838360005b8381101561557d578082015181840152602081019050615562565b50505050905090810190601f1680156155aa5780820380516001836020036101000a031916815260200191505b509250505060206040518083038186803b1580156155c757600080fd5b505af41580156155db573d6000803e3d6000fd5b505050506040513d60208110156155f157600080fd5b8101908080519060200190929190505050905060008060008381526020019081526020016000206002018054600181600116156101000203166002900490501115600a9015156156f9576040517f08c379a000000000000000000000000000000000000000000000000000000000815260040180806020018281038252838181546001816001161561010002031660029004815260200191508054600181600116156101000203166002900480156156ea5780601f106156bf576101008083540402835291602001916156ea565b820191906000526020600020905b8154815290600101906020018083116156cd57829003601f168201915b50509250505060405180910390fd5b50600080600084815260200190815260200160002060020180546001816001161561010002031660029004905011600b9015156157ee576040517f08c379a000000000000000000000000000000000000000000000000000000000815260040180806020018281038252838181546001816001161561010002031660029004815260200191508054600181600116156101000203166002900480156157df5780601f106157b4576101008083540402835291602001916157df565b820191906000526020600020905b8154815290600101906020018083116157c257829003601f168201915b50509250505060405180910390fd5b506000806000848152602001908152602001600020600101549050600061581487613a4e565b9050600080600086815260200190815260200160002060000154600101905081600102841115600c901515615901576040517f08c379a000000000000000000000000000000000000000000000000000000000815260040180806020018281038252838181546001816001161561010002031660029004815260200191508054600181600116156101000203166002900480156158f25780601f106158c7576101008083540402835291602001916158f2565b820191906000526020600020905b8154815290600101906020018083116158d557829003601f168201915b50509250505060405180910390fd5b5061590d85828461650c565b600d9015156159d4576040517f08c379a000000000000000000000000000000000000000000000000000000000815260040180806020018281038252838181546001816001161561010002031660029004815260200191508054600181600116156101000203166002900480156159c55780601f1061599a576101008083540402835291602001916159c5565b820191906000526020600020905b8154815290600101906020018083116159a857829003601f168201915b50509250505060405180910390fd5b5060006159e083613a1d565b9050600081850190506000891415615b0c576003548111600e901515615abe576040517f08c379a00000000000000000000000000000000000000000000000000000000081526004018080602001828103825283818154600181600116156101000203166002900481526020019150805460018160011615610100020316600290048015615aaf5780601f10615a8457610100808354040283529160200191615aaf565b820191906000526020600020905b815481529060010190602001808311615a9257829003601f168201915b50509250505060405180910390fd5b508560028190555080600381905550615ad9868b8584616648565b82867f6080b2cdc7fc4777ed1e1066af5de1df45ae9186adbdb7aec21fde27a3e17e4c60405160405180910390a3615f21565b6000600560008b815260200190815260200160002060010154141515615ded5786615b368a611300565b14600f901515615bfe576040517f08c379a00000000000000000000000000000000000000000000000000000000081526004018080602001828103825283818154600181600116156101000203166002900481526020019150805460018160011615610100020316600290048015615bef5780601f10615bc457610100808354040283529160200191615bef565b820191906000526020600020905b815481529060010190602001808311615bd257829003601f168201915b50509250505060405180910390fd5b50600354811115615d95576000600560008b815260200190815260200160002060000154905060008090505b600560008c815260200190815260200160002060030180549050811015615cf557600080600160008581526020019081526020016000205481526020019081526020016000206000808201600090556001820160009055600282016000615c919190616a46565b60038201600090555050600560008c815260200190815260200160002060030181815481101515615cbe57fe5b9060005260206000200154600160008481526020019081526020016000208190555081806001019250508080600101915050615c2a565b5089600560008c81526020019081526020016000206000015460016000600185038152602001908152602001600020547fb151eb0731e1e8f4bbdac427313bb7039fb39ed6e55bee53a652508bf070c5ed60405160405180910390a4600560008b815260200190815260200160002060008082016000905560018201600090556002820160009055600382016000615d8d9190616a8e565b505050615de8565b615db8898784600560008e815260200190815260200160002060020154016166c4565b8883877f97a8a4a3fa720a16b01757bf95f6482f4601e4cb3d3afe4facfb9f1fe6a8761360405160405180910390a45b615f20565b60065489141515615dfa57fe5b6002548714156010901515615ec7576040517f08c379a00000000000000000000000000000000000000000000000000000000081526004018080602001828103825283818154600181600116156101000203166002900481526020019150805460018160011615610100020316600290048015615eb85780601f10615e8d57610100808354040283529160200191615eb8565b820191906000526020600020905b815481529060010190602001808311615e9b57829003601f168201915b50509250505060405180910390fd5b50615ed589878488016166c4565b82600560008b8152602001908152602001600020600001819055508883877f97a8a4a3fa720a16b01757bf95f6482f4601e4cb3d3afe4facfb9f1fe6a8761360405160405180910390a45b5b5050505050505092915050565b600080601883908060020a82049150509050600062ffffff8416905060006003830360080260020a82029050809350505050919050565b6000602082511415616085578173__Utils_________________________________6347f5343190916040518263ffffffff167c01000000000000000000000000000000000000000000000000000000000281526004018080602001828103825283818151815260200191508051906020019080838360005b83811015615ff9578082015181840152602081019050615fde565b50505050905090810190601f1680156160265780820380516001836020036101000a031916815260200191505b509250505060206040518083038186803b15801561604357600080fd5b505af4158015616057573d6000803e3d6000fd5b505050506040513d602081101561606d57600080fd5b81019080805190602001909291905050509050616505565b6040825111801561609d575060006001835103835116145b6013901515616164576040517f08c379a000000000000000000000000000000000000000000000000000000000815260040180806020018281038252838181546001816001161561010002031660029004815260200191508054600181600116156101000203166002900480156161555780601f1061612a57610100808354040283529160200191616155565b820191906000526020600020905b81548152906001019060200180831161613857829003601f168201915b50509250505060405180910390fd5b5060008490506000600190505b6020845181151561617e57fe5b048110156164ff57600160028681151561619457fe5b0614156163415761633a8473__Utils_________________________________63e004139690916020850260206040518463ffffffff167c01000000000000000000000000000000000000000000000000000000000281526004018080602001848152602001838152602001828103825285818151815260200191508051906020019080838360005b8381101561623857808201518184015260208101905061621d565b50505050905090810190601f1680156162655780820380516001836020036101000a031916815260200191505b5094505050505060006040518083038186803b15801561628457600080fd5b505af4158015616298573d6000803e3d6000fd5b505050506040513d6000823e3d601f19601f8201168201806040525060208110156162c257600080fd5b8101908080516401000000008111156162da57600080fd5b828101905060208101848111156162f057600080fd5b815185600182028301116401000000008211171561630d57600080fd5b505092919050505083604051602001808281526020019150506040516020818303038152906040526144ab565b91506164e3565b6164e082604051602001808281526020019150506040516020818303038152906040528573__Utils_________________________________63e004139690916020860260206040518463ffffffff167c01000000000000000000000000000000000000000000000000000000000281526004018080602001848152602001838152602001828103825285818151815260200191508051906020019080838360005b838110156163fe5780820151818401526020810190506163e3565b50505050905090810190601f16801561642b5780820380516001836020036101000a031916815260200191505b5094505050505060006040518083038186803b15801561644a57600080fd5b505af415801561645e573d6000803e3d6000fd5b505050506040513d6000823e3d601f19601f82011682018060405250602081101561648857600080fd5b8101908080516401000000008111156164a057600080fd5b828101905060208101848111156164b657600080fd5b81518560018202830111640100000000821117156164d357600080fd5b50509291905050506144ab565b91505b6002858115156164ef57fe5b0494508080600101915050616171565b50809150505b9392505050565b600060606000808681526020019081526020016000206002018054600181600116156101000203166002900480601f0160208091040260200160405190810160405280929190818152602001828054600181600116156101000203166002900480156165b95780601f1061658e576101008083540402835291602001916165b9565b820191906000526020600020905b81548152906001019060200180831161659c57829003601f168201915b5050505050905060006165cb82613a4e565b90506165d685616749565b1515616602578084141580156165ed575060008114155b156165fd57600092505050616641565b61663a565b600061660d8361162f565b63ffffffff169050600060045490506000616629838386616762565b905080871495505050505050616641565b6001925050505b9392505050565b8260008086815260200190815260200160002060020190805190602001906166719291906169c6565b508160008086815260200190815260200160002060000181905550806000808681526020019081526020016000206001018190555083600160008481526020019081526020016000208190555050505050565b8060056000858152602001908152602001600020600201819055506001600560008581526020019081526020016000206001016000828254019250508190555060056000848152602001908152602001600020600301829080600181540180825580915050906001820390600052602060002001600090919290919091505550505050565b6000806107e08381151561675957fe5b06149050919050565b600080838503905060046212750081151561677957fe5b048110156167945760046212750081151561679057fe5b0490505b600462127500028111156167ac576004621275000290505b60006167d6621275006167c8868561682890919063ffffffff16565b6168b290919063ffffffff16565b90507bffffffffffffffffffffffffffffffffffffffffffffffffffffffff81111561681c577bffffffffffffffffffffffffffffffffffffffffffffffffffffffff90505b80925050509392505050565b60008083141561683b57600090506168ac565b6000828402905082848281151561684e57fe5b041415156168a7576040517f08c379a0000000000000000000000000000000000000000000000000000000008152600401808060200182810382526021815260200180616afa6021913960400191505060405180910390fd5b809150505b92915050565b60006168f483836040805190810160405280601a81526020017f536166654d6174683a206469766973696f6e206279207a65726f0000000000008152506168fc565b905092915050565b6000808311829015156169aa576040517f08c379a00000000000000000000000000000000000000000000000000000000081526004018080602001828103825283818151815260200191508051906020019080838360005b8381101561696f578082015181840152602081019050616954565b50505050905090810190601f16801561699c5780820380516001836020036101000a031916815260200191505b509250505060405180910390fd5b50600083858115156169b857fe5b049050809150509392505050565b828054600181600116156101000203166002900490600052602060002090601f016020900481019282601f10616a0757805160ff1916838001178555616a35565b82800160010185558215616a35579182015b82811115616a34578251825591602001919060010190616a19565b5b509050616a429190616aaf565b5090565b50805460018160011615610100020316600290046000825580601f10616a6c5750616a8b565b601f016020900490600052602060002090810190616a8a9190616aaf565b5b50565b5080546000825590600052602060002090810190616aac9190616ad4565b50565b616ad191905b80821115616acd576000816000905550600101616ab5565b5090565b90565b616af691905b80821115616af2576000816000905550600101616ada565b5090565b9056fe536166654d6174683a206d756c7469706c69636174696f6e206f766572666c6f77a165627a7a7230582028b96df137447bca96849922abdabae4e5c72086a8096ed2b67e218d87ca2cbe0029506f57206861736820646f6573206e6f74206d65657420646966666963756c747920746172676574206f6620686561646572496e697469616c20706172656e742068617320616c7265616479206265656e20736574496e6469636174656420666f726b207375626d697373696f6e2c2062757420626c6f636b20697320696e206d61696e20636861696e50726576696f757320626c6f636b206861736820646f6573206e6f74206d61746368206c61737420626c6f636b20696e20666f726b207375626d697373696f6e496e636f727265637420646966666963756c7479207461726765742073706563696669656420696e20626c6f636b20686561646572496e636f727265637420666f726b206964656e7469666965723a2069642030206973206e6f20617661696c61626c654d61696e20636861696e207375626d697373696f6e20696e646963617465642c20627574207375626d697474656420626c6f636b206973206f6e206120666f726b5472616e73616374696f6e20686173206c65737320636f6e6669726d6174696f6e73207468616e20726571756573746564",
  "source": "pragma solidity >=0.4.22 <0.6.0;\n\nimport \"openzeppelin-solidity/contracts/math/SafeMath.sol\";\nimport \"./Utils.sol\";\n\n/// @title BTCRelay implementation in Solidity\n/// @notice Stores Bitcoin block _headers and heaviest (PoW) chain tip, and allows verification of transaction inclusion proofs \ncontract BTCRelay {\n    \n    using SafeMath for uint256;\n    using Utils for bytes;\n    \n    // Data structure representing a Bitcoin block header\n    struct HeaderInfo {\n        uint256 blockHeight; // height of this block header\n        uint256 chainWork; // accumulated PoW at this height\n        bytes header; // 80 bytes block header\n        uint256 lastDiffAdjustment; // necessary to track, should a fork include a diff. adjustment block\n    }\n\n    // Temporary data structure used for fork submissions. \n    // Will be deleted upon success. Reasing in case of failure has no benefit to caller(!)\n    struct Fork {\n        uint256 startHeight; // start height of a fork\n        uint256 length; // number of block in fork\n        uint256 chainWork; // accumulated PoW on the fork branch\n        bytes32[] forkHeaderHashes; // references to submitted block headers\n    }\n\n    mapping(bytes32 => HeaderInfo) public _headers; // mapping of block hashes to block headers (ALL ever submitted, i.e., incl. forks)\n    mapping(uint256 => bytes32) public _mainChain; // mapping of block heights to block hashes of the MAIN CHAIN\n    bytes32 public _heaviestBlock; // block with the highest chainWork, i.e., blockchain tip\n    uint256 public _highScore; // highest chainWork, i.e., accumulated PoW at current blockchain tip    \n    uint256 public _lastDiffAdjustmentTime; // timestamp of the block of last difficulty adjustment (blockHeight % 2016 == 0)\n    mapping(uint256 => Fork) public _ongoingForks; // mapping of currently onoing fork submissions\n    uint256 public _forkCounter = 1; // incremental counter for tracking fork submission. 0 used to indicate a main chain submission\n    \n    // CONSTANTS\n    /*\n    * Bitcoin difficulty constants\n    */ \n    uint256 public constant DIFFICULTY_ADJUSTMENT_INVETVAL = 2016;\n    uint256 public constant TARGET_TIMESPAN = 14 * 24 * 60 * 60; // 2 weeks \n    uint256 public constant UNROUNDED_MAX_TARGET = 2**224 - 1; \n    uint256 public constant TARGET_TIMESPAN_DIV_4 = TARGET_TIMESPAN / 4; // store division as constant to save costs\n    uint256 public constant TARGET_TIMESPAN_MUL_4 = TARGET_TIMESPAN * 4; // store multiplucation as constant to save costs\n\n    // EVENTS\n    /*\n    * @param blockHash block header hash of block header submitted for storage\n    * @param blockHeight blockHeight\n    */\n    event StoreHeader(bytes32 indexed blockHash, uint256 indexed blockHeight);\n    /*\n    * @param blockHash block header hash of block header submitted for storage\n    * @param blockHeight blockHeight\n    * @param forkId identifier of fork in the contract\n    */\n    event StoreFork(bytes32 indexed blockHash, uint256 indexed blockHeight, uint256 indexed forkId);\n    /*\n    * @param newChainTip new tip of the blockchain after a triggered chain reorg. \n    * @param startHeight start blockHeight of fork\n    * @param forkId identifier of the fork triggering the reorg.\n    */\n    event ChainReorg(bytes32 indexed newChainTip, uint256 indexed startHeight, uint256 indexed forkId);\n    /*\n    * @param txid block header hash of block header submitted for storage\n    */\n    event VerityTransaction(bytes32 indexed txid, uint256 indexed blockHeight);\n\n\n    // EXCEPTION MESSAGES\n    string ERR_GENESIS_SET = \"Initial parent has already been set\";\n    string ERR_INVALID_FORK_ID = \"Incorrect fork identifier: id 0 is no available\";\n    string ERR_INVALID_HEADER_SIZE = \"Invalid block header size\";\n    string ERR_DUPLICATE_BLOCK = \"Block already stored\";\n    string ERR_PREV_BLOCK = \"Previous block hash not found\"; \n    string ERR_LOW_DIFF = \"PoW hash does not meet difficulty target of header\";\n    string ERR_DIFF_TARGET_HEADER = \"Incorrect difficulty target specified in block header\";\n    string ERR_NOT_MAIN_CHAIN = \"Main chain submission indicated, but submitted block is on a fork\";\n    string ERR_FORK_PREV_BLOCK = \"Previous block hash does not match last block in fork submission\";\n    string ERR_NOT_FORK = \"Indicated fork submission, but block is in main chain\";\n    string ERR_INVALID_TXID = \"Invalid transaction identifier\";\n    string ERR_CONFIRMS = \"Transaction has less confirmations than requested\"; \n    string ERR_MERKLE_PROOF = \"Invalid Merkle Proof structure\";\n    \n    /*\n    * @notice Initialized BTCRelay with provided block, i.e., defined the first block of the stored chain. \n    * @dev TODO: check issue with \"blockHeight mod 2016 = 2015\" requirement (old btc relay!). Alexei: IMHO should be called with \"blockHeight mod 2016 = 0\"\n    * @param blockHeaderBytes Raw Bitcoin block headers\n    * @param blockHeight block blockHeight\n    * @param chainWork total accumulated PoW at given block blockHeight/hash \n    * @param lastDiffAdjustmentTime timestamp of the block of the last diff. adjustment. Note: diff. target of that block MUST be equal to @param target \n    */\n    function setInitialParent(\n        bytes memory blockHeaderBytes, \n        uint32 blockHeight, \n        uint256 chainWork,\n        uint256 lastDiffAdjustmentTime) \n        public {\n        require(_heaviestBlock == 0, ERR_GENESIS_SET);\n        \n       \n        bytes32 blockHeaderHash = dblSha(blockHeaderBytes).flipBytes().toBytes32(); \n        _heaviestBlock = blockHeaderHash;\n        _highScore = chainWork;\n        _lastDiffAdjustmentTime = lastDiffAdjustmentTime;\n        \n        _headers[blockHeaderHash].header = blockHeaderBytes;\n        _headers[blockHeaderHash].blockHeight = blockHeight;\n        _headers[blockHeaderHash].chainWork = chainWork;\n\n        emit StoreHeader(blockHeaderHash, blockHeight);\n    }\n\n    /*\n    * @notice Submit block header to current main chain in relay\n    * @dev Will revert if fork is submitted! Use submitNewForkChainHeader for fork submissions.\n    */\n    function submitMainChainHeader(bytes memory blockHeaderBytes) public returns (bytes32){\n        return submitBlockHeader(blockHeaderBytes, 0);\n    }\n    \n    /*\n    * @notice Submit block header to start a NEW FORK\n    * @dev Increments _forkCounter and uses this as forkId\n    */\n    function submitNewForkChainHeader(bytes memory blockHeaderBytes) public returns (bytes32 blockHeaderHash){\n        blockHeaderHash = submitBlockHeader(blockHeaderBytes, _forkCounter);    \n        _forkCounter++;\n        return blockHeaderHash;\n    }\n    \n    /*\n    * @notice Submit block header to existing fork\n    * @dev Will revert if previos block is not in the specified fork!\n    */\n    function submitForkChainHeader(bytes memory blockHeaderBytes, uint256 forkId) public returns (bytes32){\n        require(forkId > 0, ERR_INVALID_FORK_ID);\n        return submitBlockHeader(blockHeaderBytes, forkId);   \n    }\n\n    /*\n    * @notice Parses, validates and stores Bitcoin block header to mapping\n    * @dev Can only be called interlally - use submitXXXHeader for public access \n    * @param blockHeaderBytes Raw Bitcoin block header bytes (80 bytes)\n    * @param forkId when submitting a fork, pass forkId to reference existing fork submission (Problem: submitting to fork even if not in fork?)\n    * \n    */  \n    function submitBlockHeader(bytes memory blockHeaderBytes, uint256 forkId) internal returns (bytes32) {\n        \n        require(blockHeaderBytes.length == 80, ERR_INVALID_HEADER_SIZE);\n\n        bytes32 hashPrevBlock = blockHeaderBytes.slice(4, 32).flipBytes().toBytes32();\n        bytes32 hashCurrentBlock = dblSha(blockHeaderBytes).flipBytes().toBytes32();\n\n        // Fail if block already exists\n        // Time is always set in block header struct (prevBlockHash and height can be 0 for Genesis block)\n        require(_headers[hashCurrentBlock].header.length <= 0, ERR_DUPLICATE_BLOCK);\n        // Fail if previous block hash not in current state of main chain\n        require(_headers[hashPrevBlock].header.length > 0, ERR_PREV_BLOCK);\n\n        // Fails if previous block header is not stored\n        uint256 chainWorkPrevBlock = _headers[hashPrevBlock].chainWork;\n        uint256 target = getTargetFromHeader(blockHeaderBytes);\n        uint256 blockHeight = 1 + _headers[hashPrevBlock].blockHeight;\n        \n        // Check the PoW solution matches the target specified in the block header\n        require(hashCurrentBlock <= bytes32(target), ERR_LOW_DIFF);\n        // Check the specified difficulty target is correct:\n        // If retarget: according to Bitcoin's difficulty adjustment mechanism;\n        // Else: same as last block. \n        // TODO: return more detailed error messages here (i.e., move require into cocorrectDifficultyTarget function)\n        require(correctDifficultyTarget(hashPrevBlock, blockHeight, target), ERR_DIFF_TARGET_HEADER);\n\n        // https://en.bitcoin.it/wiki/Difficulty\n        // TODO: check correct conversion here\n        uint256 difficulty = getDifficulty(target);\n        uint256 chainWork = chainWorkPrevBlock + difficulty;\n\n        // Fork handling\n        if(forkId == 0){\n            // Main chain submission\n            require(chainWork > _highScore, ERR_NOT_MAIN_CHAIN);\n            _heaviestBlock = hashCurrentBlock;\n            _highScore = chainWork;\n            storeBlockHeader(hashCurrentBlock, blockHeaderBytes, blockHeight, chainWork);\n            emit StoreHeader(hashCurrentBlock, blockHeight);\n            \n        } else if(_ongoingForks[forkId].length != 0){\n            // Submission to ongoing fork\n            // check that prev. block hash of current block is indeed in the fork\n            require(getLatestForkHash(forkId) == hashPrevBlock, ERR_FORK_PREV_BLOCK);\n            if(chainWork > _highScore){\n                // Handle successful fork: remove old block header and update main chain reference\n                uint256 currentHeight = _ongoingForks[forkId].startHeight;\n                for (uint i = 0; i < _ongoingForks[forkId].forkHeaderHashes.length; i++) {                    \n                    // Delete old block header data. \n                    // Note: This refunds gas!\n                    // TODO: optimze such that users do not get cut-off by tx.gasUsed / 2\n                    delete _headers[_mainChain[currentHeight]];\n                    // Update main chain height pointer to new header from fork\n                    _mainChain[currentHeight] = _ongoingForks[forkId].forkHeaderHashes[i];\n                    currentHeight++;\n                }\n                emit ChainReorg(_mainChain[currentHeight-1], _ongoingForks[forkId].startHeight, forkId);\n                // Delete successful fork submission\n                // This refunds gas!\n                delete _ongoingForks[forkId];\n            \n            } else {\n                // Fork still being extended: append block\n                storeForkHeader(forkId, hashCurrentBlock, _ongoingForks[forkId].chainWork + difficulty);\n                emit StoreFork(hashCurrentBlock, blockHeight, forkId);\n            }\n        } else {\n            // Submission of new fork\n            // This should never fail\n            assert(forkId == _forkCounter); \n            // Check that block is indeed a fork\n            require(hashPrevBlock != _heaviestBlock, ERR_NOT_FORK);\n            storeForkHeader(\n                forkId,\n                hashCurrentBlock,\n                chainWorkPrevBlock + difficulty\n            );\n            _ongoingForks[forkId].startHeight = blockHeight;\n            emit StoreFork(hashCurrentBlock, blockHeight, forkId);\n        }\n    }\n\n    /*\n    * @notice Stores parsed block header and meta information\n    */\n    function storeBlockHeader(bytes32 hashCurrentBlock, bytes memory blockHeaderBytes, uint256 blockHeight, uint256 chainWork) internal {\n        // potentially externalize this call\n        _headers[hashCurrentBlock].header = blockHeaderBytes;\n        _headers[hashCurrentBlock].blockHeight = blockHeight;\n        _headers[hashCurrentBlock].chainWork = chainWork;\n        _mainChain[blockHeight] = hashCurrentBlock;\n    }\n\n    /*\n    * @notice Stores and handles fork submission.\n    */\n    function storeForkHeader(uint256 forkId, bytes32 blockHeaderHash, uint256 chainWork) internal {\n        _ongoingForks[forkId].chainWork = chainWork;\n        _ongoingForks[forkId].length += 1;\n        _ongoingForks[forkId].forkHeaderHashes.push(blockHeaderHash);\n    }\n\n    /*\n    * @notice Verifies that a transaction is included in a block at a given blockheight\n    * @param txid transaction identifier\n    * @param txBlockHeight block height at which transacton is supposedly included\n    * @param txIndex index of transaction in the block's tx merkle tree\n    * @param merkleProof  merkle tree path (concatenated LE sha256 hashes)\n    * @return True if txid is at the claimed position in the block at the given blockheight, False otherwise\n    */\n    function verifxTX(bytes32 txid, uint256 txBlockHeight, uint256 txIndex, bytes memory merkleProof, uint256 confirmations) public returns(bool) {\n        // txid must not be 0\n        require(txid != bytes32(0x0), ERR_INVALID_TXID);\n        \n        // check requrested confirmations. No need to compute proof if insufficient confs.\n        require(_headers[_heaviestBlock].blockHeight - txBlockHeight >= confirmations, ERR_CONFIRMS);\n\n        bytes32 blockHeaderHash = _mainChain[txBlockHeight];\n        bytes32 merkleRoot = getMerkleRoot(_headers[blockHeaderHash].header);\n        // Check merkle proof structure: 1st hash == txid and last hash == merkleRoot\n        require(merkleProof.slice(0, 32).toBytes32() == txid, ERR_MERKLE_PROOF);\n        require(merkleProof.slice(merkleRoot.length, 32).toBytes32() == merkleRoot, ERR_MERKLE_PROOF);\n        \n        // compute merkle tree root and check if it matches block's original merkle tree root\n        if(computeMerkle(txid, txIndex, merkleProof) == merkleRoot){\n            emit VerityTransaction(txid, txBlockHeight);\n            return true;\n        }\n        return false;\n\n\n    }\n\n    // HELPER FUNCTIONS\n    /*\n    * @notice Performs Bitcoin-like double sha256 \n    * @param data Bytes to be flipped and double hashed s\n    */\n    function dblSha(bytes memory data) public pure returns (bytes memory){\n        return abi.encodePacked(sha256(abi.encodePacked(sha256(data))));\n    }\n\n\n    /*\n    * @notice Calculates the PoW difficulty target from compressed nBits representation, \n    * according to https://bitcoin.org/en/developer-reference#target-nbits\n    * @param nBits Compressed PoW target representation\n    * @return PoW difficulty target computed from nBits\n    */\n    function nBitsToTarget(uint256 nBits) private pure returns (uint256){\n        uint256 exp = uint256(nBits) >> 24;\n        uint256 c = uint256(nBits) & 0xffffff;\n        uint256 target = uint256((c * 2**(8*(exp - 3))));\n        return target;\n    }\n\n    /*\n    * @notice Checks if the difficulty target should be adjusted at this block blockHeight\n    * @param blockHeight block blockHeight to be checked\n    * @return true, if block blockHeight is at difficulty adjustment interval, otherwise false\n    */\n    function difficultyShouldBeAdjusted(uint256 blockHeight) private pure returns (bool){\n        return blockHeight % DIFFICULTY_ADJUSTMENT_INVETVAL == 0;\n    }\n\n    /*\n    * @notice Verifies the currently submitted block header has the correct difficutly target, based on contract parameters\n    * @dev Called from submitBlockHeader. TODO: think about emitting events in this function to identify the reason for failures\n    * @param hashPrevBlock Previous block hash (necessary to retrieve previous target)\n    */\n    function correctDifficultyTarget(bytes32 hashPrevBlock, uint256 blockHeight, uint256 target) private view returns(bool) {\n        bytes memory prevBlockHeader = _headers[hashPrevBlock].header;\n        uint256 prevTarget = getTargetFromHeader(prevBlockHeader);\n        \n        if(!difficultyShouldBeAdjusted(blockHeight)){\n            // Difficulty not adjusted at this block blockHeight\n            if(target != prevTarget && prevTarget != 0){\n                return false;\n            }\n        } else {\n            // Difficulty should be adjusted at this block blockHeight => check if adjusted correctly!\n            uint256 prevTime = getTimeFromHeader(prevBlockHeader);\n            uint256 startTime = _lastDiffAdjustmentTime;\n            uint256 newTarget = computeNewTarget(prevTime, startTime, prevTarget);\n            return target == newTarget;\n        }\n        return true;\n    }\n\n    /*\n    * @notice Computes the new difficulty target based on the given parameters, \n    * according to: https://github.com/bitcoin/bitcoin/blob/78dae8caccd82cfbfd76557f1fb7d7557c7b5edb/src/pow.cpp \n    * @param prevTime timestamp of previous block \n    * @param startTime timestamp of last re-target\n    * @param prevTarget PoW difficulty target of previous block\n    */\n    function computeNewTarget(uint256 prevTime, uint256 startTime, uint256 prevTarget) private pure returns(uint256){\n        uint256 actualTimeSpan = prevTime - startTime;\n        if(actualTimeSpan < TARGET_TIMESPAN_DIV_4){\n            actualTimeSpan = TARGET_TIMESPAN_DIV_4;\n        } \n        if(actualTimeSpan > TARGET_TIMESPAN_MUL_4){\n            actualTimeSpan = TARGET_TIMESPAN_MUL_4;\n        }\n\n        uint256 newTarget = actualTimeSpan.mul(prevTarget).div(TARGET_TIMESPAN);\n        if(newTarget > UNROUNDED_MAX_TARGET){\n            newTarget = UNROUNDED_MAX_TARGET;\n        }\n        return newTarget;\n    }   \n\n    /*\n    * @notice Reconstructs merkle tree root given a transaction hash, index in block and merkle tree path\n    * @param txHash hash of to be verified transaction\n    * @param txIndex index of transaction given by hash in the corresponding block's merkle tree \n    * @param merkleProof merkle tree path to transaction hash from block's merkle tree root\n    * @return merkle tree root of the block containing the transaction, meaningless hash otherwise\n    */\n    function computeMerkle(bytes32 txHash, uint256 txIndex, bytes memory merkleProof) internal view returns(bytes32) {\n    \n        //  Special case: only coinbase tx in block. Root == proof\n        if(merkleProof.length == 32) return merkleProof.toBytes32();\n\n        // Merkle proof length must be greater than 64 and power of 2. Case length == 32 covered above.\n        require(merkleProof.length > 64 && (merkleProof.length & (merkleProof.length - 1)) == 0, ERR_MERKLE_PROOF);\n        \n        bytes32 resultHash = txHash;\n\n        for(uint i = 1; i < merkleProof.length / 32; i++) {\n            if(txIndex % 2 == 1){\n                resultHash = concatSHA256Hash(merkleProof.slice(i * 32, 32), abi.encodePacked(resultHash));\n            } else {\n                resultHash = concatSHA256Hash(abi.encodePacked(resultHash), merkleProof.slice(i * 32, 32));\n            }\n            txIndex /= 2;\n        }\n        return resultHash;\n    }\n\n    /*\n    * @notice Concatenates and re-hashes two SHA256 hashes\n    * @param left left side of the concatenation\n    * @param right right side of the concatenation\n    * @return sha256 hash of the concatenation of left and right\n    */\n    function concatSHA256Hash(bytes memory left, bytes memory right) public pure returns (bytes32) {\n        return dblSha(abi.encodePacked(left, right)).toBytes32();\n    }\n\n    /*\n    * @notice Checks if given block hash has the requested number of confirmations\n    * @dev: Will fail in txBlockHash is not in _headers\n    * @param blockHeaderHash Block header hash to be verified\n    * @param confirmations Requested number of confirmations\n    */\n    function withinXConfirms(bytes32 blockHeaderHash, uint256 confirmations) public view returns(bool){\n        return _headers[_heaviestBlock].blockHeight - _headers[blockHeaderHash].blockHeight >= confirmations;\n    }\n\n    // Parser functions\n    function getTimeFromHeader(bytes memory blockHeaderBytes) public pure returns(uint32){\n        return uint32(blockHeaderBytes.slice(68,4).flipBytes().bytesToUint()); \n    }\n\n    function getMerkleRoot(bytes memory blockHeaderBytes) public pure returns(bytes32){\n        return blockHeaderBytes.slice(36, 32).flipBytes().toBytes32();\n    }\n\n    function getPrevBlockHashFromHeader(bytes memory blockHeaderBytes) public pure returns(bytes32){\n        return blockHeaderBytes.slice(4, 32).flipBytes().toBytes32();\n    }\n\n    function getMerkleRootFromHeader(bytes memory blockHeaderBytes) public pure returns(bytes32){\n        return blockHeaderBytes.slice(36,32).toBytes32(); \n    }\n\n    function getNBitsFromHeader(bytes memory blockHeaderBytes) public pure returns(uint256){\n        return blockHeaderBytes.slice(72, 4).flipBytes().bytesToUint();\n    }\n\n    function getTargetFromHeader(bytes memory blockHeaderBytes) public pure returns(uint256){\n        return nBitsToTarget(getNBitsFromHeader(blockHeaderBytes));\n    }\n\n    function getDifficulty(uint256 target) public pure returns(uint256){\n        return 0x00000000FFFF0000000000000000000000000000000000000000000000000000 / target;\n    }\n\n\n    // Getters\n\n    function getBlockHeader(bytes32 blockHeaderHash) public view returns(\n        uint32 version,\n        uint32 time,\n        uint32 nonce,\n        bytes32 prevBlockHash,\n        bytes32 merkleRoot,\n        uint256 target\n    ){\n        bytes memory blockHeaderBytes = _headers[blockHeaderHash].header;\n        version = uint32(blockHeaderBytes.slice(0,4).flipBytes().bytesToUint());\n        time = uint32(blockHeaderBytes.slice(68,4).flipBytes().bytesToUint());\n        nonce = uint32(blockHeaderBytes.slice(76, 4).flipBytes().bytesToUint());\n        prevBlockHash = blockHeaderBytes.slice(4, 32).flipBytes().toBytes32();\n        merkleRoot = blockHeaderBytes.slice(36,32).toBytes32();\n        target = nBitsToTarget(blockHeaderBytes.slice(72, 4).flipBytes().bytesToUint());\n        return(version, time, nonce, prevBlockHash, merkleRoot, target);\n    }\n\n    function getLatestForkHash(uint256 forkId) public view returns(bytes32){\n        return _ongoingForks[forkId].forkHeaderHashes[_ongoingForks[forkId].forkHeaderHashes.length - 1]; \n    }\n}",
  "sourcePath": "/home/sonicskye/ethereum/truffle/btcrelay-sol/contracts/BTCRelay.sol",
  "compiler": {
    "name": "solc",
    "version": "0.5.2+commit.1df8f40c.Emscripten.clang"
  },
  "schemaVersion": "3.2.3",
  "updatedAt": "2020-08-11T03:31:09.912Z",
  "networkType": "ethereum",
  "devdoc": {
    "methods": {},
    "title": "BTCRelay implementation in Solidity"
  },
  "userdoc": {
    "methods": {},
    "notice": "Stores Bitcoin block _headers and heaviest (PoW) chain tip, and allows verification of transaction inclusion proofs "
  }
}